:100000000C9434000C9451000C9451000C94510049
:100010000C9451000C9451000C9451000C9451001C
:100020000C9451000C9451000C9451000C9451000C
:100030000C9451000C9451000C9451000C945100FC
:100040000C9451000C9451000C9453000C945100EA
:100050000C9451000C9451000C9451000C945100DC
:100060000C9451000C94510011241FBECFEFD8E026
:10007000DEBFCDBF11E0A0E0B1E0EEEEF1E002C0E6
:1000800005900D92A230B107D9F721E0A2E0B1E0CE
:1000900001C01D92A330B207E1F70E9469000C94E1
:1000A000F5000C9400001F920F920FB60F921124CE
:1000B0008F93CF93DF93CDB7DEB781E080930201BA
:1000C0000000DF91CF918F910F900FBE0F901F9086
:1000D0001895CF93DF93CDB7DEB78FE590E0FC01A5
:1000E00020818FE590E02F77FC01208382EC90E067
:1000F000FC01208182EC90E02F73FC01208382ECD4
:1001000090E0FC01208182EC90E02F7DFC012083B7
:1001100082EC90E0FC01208182EC90E02F7EFC01DB
:10012000208382EC90E0FC01208182EC90E0277F2C
:10013000FC01208382EC90E0FC01208182EC90E0C5
:100140002660FC01208381EC90E0FC01208181ECA1
:1001500090E02B7FFC01208385EC90E0FC01108275
:1001600084EC90E027E6FC01208381EC90E0FC0128
:10017000208181EC90E02068FC01208380EC90E0FD
:10018000FC01208180EC90E02068FC01208381EC60
:1001900090E0FC01208181EC90E02061FC01208353
:1001A0008FE590E0FC0120818FE590E02068FC0164
:1001B0002083809102018823E1F386EC90E0FC012A
:1001C0008081809300011092020181EC90E0FC019B
:1001D000208181EC90E02860FC01208320910001C7
:0E01E00086EC90E0FC012083E4CFF894FFCF82
:0201EE006100AE
:00000001FF
