:100000000C9434000C9451000C9451000C94510049
:100010000C9451000C9451000C9451000C9451001C
:100020000C9451000C9451000C9451000C9451000C
:100030000C9451000C9451000C9451000C945100FC
:100040000C9451000C9451000C9451000C945300EA
:100050000C9451000C9451000C9451000C945100DC
:100060000C9451000C94510011241FBECFEFD8E026
:10007000DEBFCDBF11E0A0E0B1E0EAE8F2E002C0EF
:1000800005900D92A430B107D9F721E0A4E0B1E0CA
:1000900001C01D92A630B207E1F70E9469000C94DE
:1000A00043010C9400001F920F920FB60F9211247F
:1000B0008F93CF93DF93CDB7DEB781E080930201BA
:1000C0000000DF91CF918F910F900FBE0F901F9086
:1000D0001895CF93DF9300D0CDB7DEB782EC90E0D8
:1000E00026E0FC01208382EC90E0FC01208182EC80
:1000F00090E02660FC01208382EC90E0FC012081EE
:1001000082EC90E02063FC01208382EC90E0FC0113
:10011000208182EC90E02860FC01208382EC90E05A
:10012000FC01208182EC90E02F77FC01208382EC9F
:1001300090E0FC01208182EC90E02F7BFC01208389
:1001400081EC90E0FC01208181EC90E02860FC01D2
:10015000208381EC90E0FC01208181EC90E02B7FFA
:10016000FC0120838FE590E0FC0120818FE590E089
:100170002F77FC01208381EC90E0FC01208181EC51
:1001800090E02062FC01208380EC90E0FC01208163
:1001900080EC90E02062FC01208385EC90E0FC0183
:1001A000108284EC90E027E6FC0120838FE590E04C
:1001B000FC0120818FE590E02068FC012083809184
:1001C00002018823E1F380910401823050F081EC38
:1001D00090E0FC01208181EC90E02F7DFC012083E8
:1001E000EECF80910401882F90E081709927805094
:1001F0009F4FFC0180818595859585958595859591
:10020000898380910401882F90E081709927805024
:100210009F4FFC0180818A8381EC90E0FC0180810A
:10022000282F30E081E090E0AC0102C0440F551F60
:100230002A95E2F79A0181EC90E0FC018081982FE9
:10024000822F292F282B81EC90E0FC0120838091C4
:100250000501882349F481E08093050186EC90E054
:100260002A81FC0120830CC086EC90E02981FC01EE
:10027000208310920501809104018F5F8093040117
:0A028000109202019CCFF894FFCF0A
:04028A0061620100AC
:00000001FF
